{
  "contractName": "AdditionGame",
  "abi": [
    {
      "constant": true,
      "inputs": [],
      "name": "owner",
      "outputs": [
        {
          "name": "",
          "type": "address"
        }
      ],
      "payable": false,
      "stateMutability": "view",
      "type": "function"
    },
    {
      "inputs": [],
      "payable": false,
      "stateMutability": "nonpayable",
      "type": "constructor"
    },
    {
      "constant": true,
      "inputs": [],
      "name": "getBalance",
      "outputs": [
        {
          "name": "",
          "type": "uint256"
        }
      ],
      "payable": false,
      "stateMutability": "view",
      "type": "function"
    },
    {
      "constant": false,
      "inputs": [],
      "name": "deposit",
      "outputs": [],
      "payable": true,
      "stateMutability": "payable",
      "type": "function"
    },
    {
      "constant": false,
      "inputs": [
        {
          "name": "_value",
          "type": "uint256"
        }
      ],
      "name": "transfer",
      "outputs": [
        {
          "name": "",
          "type": "bool"
        }
      ],
      "payable": false,
      "stateMutability": "nonpayable",
      "type": "function"
    }
  ],
  "bytecode": "0x608060405234801561001057600080fd5b50336000806101000a81548173ffffffffffffffffffffffffffffffffffffffff021916908373ffffffffffffffffffffffffffffffffffffffff16021790555061026d806100606000396000f300608060405260043610610062576000357c0100000000000000000000000000000000000000000000000000000000900463ffffffff16806312065fe01461006757806312514bba146100925780638da5cb5b146100d7578063d0e30db01461012e575b600080fd5b34801561007357600080fd5b5061007c610138565b6040518082815260200191505060405180910390f35b34801561009e57600080fd5b506100bd60048036038101908080359060200190929190505050610157565b604051808215151515815260200191505060405180910390f35b3480156100e357600080fd5b506100ec6101bf565b604051808273ffffffffffffffffffffffffffffffffffffffff1673ffffffffffffffffffffffffffffffffffffffff16815260200191505060405180910390f35b6101366101e4565b005b60003073ffffffffffffffffffffffffffffffffffffffff1631905090565b600081610162610138565b1015151561016f57600080fd5b3373ffffffffffffffffffffffffffffffffffffffff166108fc839081150290604051600060405180830381858888f193505050501580156101b5573d6000803e3d6000fd5b5060019050919050565b6000809054906101000a900473ffffffffffffffffffffffffffffffffffffffff1681565b6000809054906101000a900473ffffffffffffffffffffffffffffffffffffffff1673ffffffffffffffffffffffffffffffffffffffff163373ffffffffffffffffffffffffffffffffffffffff1614151561023f57600080fd5b5600a165627a7a723058204e04d18669081b95a10d956633aff1a1510595459477170d00411d1abf3db13d0029",
  "source": "pragma solidity >=0.4.24;\r\n\r\ncontract AdditionGame {\r\n    address public owner;\r\n\r\n    // 배포하는순간 운영자 계정에 주소를 저장할수있는\r\n    // 컨트렉변수를 만듭니다.\r\n\r\n    constructor() public {\r\n        owner = msg.sender;\r\n           //mseg.sender는 이 함수를 호출하고있는 사람을 뜻함\r\n    }\r\n    \r\n    function getBalance() public view returns (uint) {//컨트랙에 잔액 불러오는 함수\r\n        //function 키워드를 쓰고 가시성은 public을 썼고 type은 view로 써서 읽기전용이다.\r\n        //uint형을 반환한다.\r\n        \r\n        return address(this).balance;\r\n        // address(this) : 현재 컨트랙트 자신, 즉 AdditionGame 컨트랙을 말함\r\n        // member로 balance를 접근가능\r\n        // 이렇게하면 이 컨트랙주소에 클레이잔액을 불러 올수있는 함수\r\n    }\r\n\r\n    function deposit() public payable {//owner 계정에서 컨트랙주소로 클레이를 송금하는 함수\r\n        // type payable 이다.\r\n        // 계정에서 solidity 함수로 클레이를 보낼때 항상 payable이라는 타입을 붙여야합니다.\r\n        // 그래야 함수에서 돈을 받을수 있음.\r\n\r\n        //밑은 유효성체크 require키워드를 써서 이안에 조건문이 맞지않다면 함수를 종료하게 된다.\r\n        // msg.sender 는 이함수를 호출한 계정 을 뜻하고 = 상태변수 owner 계정과 같다면 이함수를 실행\r\n        require(msg.sender == owner);\r\n    }   \r\n  \r\n    function transfer(uint _value) public returns (bool) {\r\n        //컨트랙에서 사용자로 클레이를 보내는 함수\r\n        require(getBalance() >= _value);\r\n        msg.sender.transfer(_value);\r\n        return true;\r\n    }\r\n\r\n    \r\n\r\n\r\n\r\n\r\n}\r\n",
  "sourcePath": "C:\\Users\\bon300-26\\Desktop\\addition-game-starter\\contracts\\AdditionGame.sol",
  "compiler": {
    "name": "solc",
    "version": "0.4.25+commit.59dbf8f1.Emscripten.clang"
  },
  "schemaVersion": "2.0.2",
  "updatedAt": "2020-02-07T10:34:21.557Z"
}